{
  "_format": "hh-sol-artifact-1",
  "contractName": "FlashLoan",
  "sourceName": "contracts/FlashLoan.sol",
  "abi": [
    {
      "inputs": [
        {
          "internalType": "address",
          "name": "provider",
          "type": "address"
        },
        {
          "internalType": "address",
          "name": "swapRouter",
          "type": "address"
        },
        {
          "internalType": "address",
          "name": "owner",
          "type": "address"
        }
      ],
      "stateMutability": "nonpayable",
      "type": "constructor"
    },
    {
      "inputs": [],
      "name": "ADDRESSES_PROVIDER",
      "outputs": [
        {
          "internalType": "contract IPoolAddressesProvider",
          "name": "",
          "type": "address"
        }
      ],
      "stateMutability": "view",
      "type": "function"
    },
    {
      "inputs": [
        {
          "internalType": "bool",
          "name": "single",
          "type": "bool"
        },
        {
          "internalType": "uint256",
          "name": "amountIn",
          "type": "uint256"
        },
        {
          "internalType": "uint256",
          "name": "minimumAmount",
          "type": "uint256"
        },
        {
          "internalType": "bytes",
          "name": "path",
          "type": "bytes"
        }
      ],
      "name": "AaveOperation",
      "outputs": [
        {
          "internalType": "bool",
          "name": "",
          "type": "bool"
        }
      ],
      "stateMutability": "nonpayable",
      "type": "function"
    },
    {
      "inputs": [],
      "name": "COMET",
      "outputs": [
        {
          "internalType": "contract IComet",
          "name": "",
          "type": "address"
        }
      ],
      "stateMutability": "view",
      "type": "function"
    },
    {
      "inputs": [
        {
          "internalType": "bool",
          "name": "single",
          "type": "bool"
        },
        {
          "internalType": "uint256",
          "name": "flashAmount",
          "type": "uint256"
        },
        {
          "internalType": "uint256",
          "name": "amountIn",
          "type": "uint256"
        },
        {
          "internalType": "uint256",
          "name": "minimumAmount",
          "type": "uint256"
        },
        {
          "internalType": "bytes",
          "name": "path",
          "type": "bytes"
        }
      ],
      "name": "CompOperation",
      "outputs": [
        {
          "internalType": "bool",
          "name": "",
          "type": "bool"
        }
      ],
      "stateMutability": "nonpayable",
      "type": "function"
    },
    {
      "inputs": [],
      "name": "LIDOADDRESS",
      "outputs": [
        {
          "internalType": "address",
          "name": "",
          "type": "address"
        }
      ],
      "stateMutability": "view",
      "type": "function"
    },
    {
      "inputs": [],
      "name": "LIDOMODE",
      "outputs": [
        {
          "internalType": "bytes32",
          "name": "",
          "type": "bytes32"
        }
      ],
      "stateMutability": "view",
      "type": "function"
    },
    {
      "inputs": [],
      "name": "OWNER",
      "outputs": [
        {
          "internalType": "address",
          "name": "",
          "type": "address"
        }
      ],
      "stateMutability": "view",
      "type": "function"
    },
    {
      "inputs": [],
      "name": "POOL",
      "outputs": [
        {
          "internalType": "contract IPool",
          "name": "",
          "type": "address"
        }
      ],
      "stateMutability": "view",
      "type": "function"
    },
    {
      "inputs": [],
      "name": "SWAP_ROUTER",
      "outputs": [
        {
          "internalType": "contract ISwapRouter",
          "name": "",
          "type": "address"
        }
      ],
      "stateMutability": "view",
      "type": "function"
    },
    {
      "inputs": [],
      "name": "USDC",
      "outputs": [
        {
          "internalType": "address",
          "name": "",
          "type": "address"
        }
      ],
      "stateMutability": "view",
      "type": "function"
    },
    {
      "inputs": [],
      "name": "WSTADDRESS",
      "outputs": [
        {
          "internalType": "address payable",
          "name": "",
          "type": "address"
        }
      ],
      "stateMutability": "view",
      "type": "function"
    },
    {
      "inputs": [
        {
          "internalType": "address",
          "name": "receiverAddress",
          "type": "address"
        },
        {
          "internalType": "address[]",
          "name": "assets",
          "type": "address[]"
        },
        {
          "internalType": "uint256[]",
          "name": "amounts",
          "type": "uint256[]"
        },
        {
          "internalType": "uint256[]",
          "name": "interestRateModes",
          "type": "uint256[]"
        },
        {
          "internalType": "bytes",
          "name": "params",
          "type": "bytes"
        },
        {
          "internalType": "uint16",
          "name": "referralCode",
          "type": "uint16"
        }
      ],
      "name": "callAAVEFlashLoan",
      "outputs": [
        {
          "internalType": "bool",
          "name": "",
          "type": "bool"
        }
      ],
      "stateMutability": "nonpayable",
      "type": "function"
    },
    {
      "inputs": [
        {
          "internalType": "address[]",
          "name": "assets",
          "type": "address[]"
        },
        {
          "internalType": "uint256[]",
          "name": "amounts",
          "type": "uint256[]"
        },
        {
          "internalType": "uint256[]",
          "name": "premiums",
          "type": "uint256[]"
        },
        {
          "internalType": "address",
          "name": "initiator",
          "type": "address"
        },
        {
          "internalType": "bytes",
          "name": "params",
          "type": "bytes"
        }
      ],
      "name": "executeOperation",
      "outputs": [
        {
          "internalType": "bool",
          "name": "",
          "type": "bool"
        }
      ],
      "stateMutability": "nonpayable",
      "type": "function"
    },
    {
      "inputs": [
        {
          "components": [
            {
              "internalType": "bytes",
              "name": "path",
              "type": "bytes"
            },
            {
              "internalType": "bool",
              "name": "single",
              "type": "bool"
            },
            {
              "internalType": "address",
              "name": "recipient",
              "type": "address"
            },
            {
              "internalType": "uint256",
              "name": "amountIn",
              "type": "uint256"
            },
            {
              "internalType": "uint256",
              "name": "amountOutMinimum",
              "type": "uint256"
            }
          ],
          "internalType": "struct FlashLoan.SwapParams",
          "name": "swapParams",
          "type": "tuple"
        }
      ],
      "name": "swap",
      "outputs": [
        {
          "internalType": "uint256",
          "name": "amountOut",
          "type": "uint256"
        }
      ],
      "stateMutability": "nonpayable",
      "type": "function"
    },
    {
      "stateMutability": "payable",
      "type": "receive"
    }
  ],
  "bytecode": "0x6080604052600580546001600160a01b031990811673ae7ab96520de3a18e5e111b5eaab095312d7fe8417909155600680548216737f39c581f595b53c5cb19bd0b3f8da6c935e2ca01790556007805490911673a0b86991c6218b36c1d19d4a2e9eb0ce3606eb481790553480156200007757600080fd5b5060405162002051380380620020518339810160408190526200009a91620001a6565b600080546001600160a01b03199081166001600160a01b038681169182179093556001805473c3d688b66703497daa19211eedff47f25384cdc3908416811790915560028054909316938616939093179091556040805163026b1d5f60e01b8152905163026b1d5f916004808201926020929091908290030181865afa15801562000129573d6000803e3d6000fd5b505050506040513d601f19601f820116820180604052508101906200014f9190620001f0565b600380546001600160a01b039283166001600160a01b03199182161790915560048054949092169316929092179091555062000215915050565b80516001600160a01b0381168114620001a157600080fd5b919050565b600080600060608486031215620001bc57600080fd5b620001c78462000189565b9250620001d76020850162000189565b9150620001e76040850162000189565b90509250925092565b6000602082840312156200020357600080fd5b6200020e8262000189565b9392505050565b611e2c80620002256000396000f3fe6080604052600436106100e15760003560e01c806391431dec1161007f578063d5f1498211610059578063d5f14982146102d7578063dc9c675d14610304578063de90670c14610324578063e766b2bb1461035157600080fd5b806391431dec1461026a578063920f5c841461028a578063c6005893146102aa57600080fd5b80632517b92b116100bb5780632517b92b146101a1578063617c5583146101ce5780637535d2461461021057806389a302711461023d57600080fd5b80630542975c146100ed5780630d3376da14610144578063117803e31461017457600080fd5b366100e857005b600080fd5b3480156100f957600080fd5b5060005461011a9073ffffffffffffffffffffffffffffffffffffffff1681565b60405173ffffffffffffffffffffffffffffffffffffffff90911681526020015b60405180910390f35b34801561015057600080fd5b5061016461015f366004611738565b610371565b604051901515815260200161013b565b34801561018057600080fd5b5060045461011a9073ffffffffffffffffffffffffffffffffffffffff1681565b3480156101ad57600080fd5b5060015461011a9073ffffffffffffffffffffffffffffffffffffffff1681565b3480156101da57600080fd5b506102027f300000000000000000000000000000000000000000000000000000000000000081565b60405190815260200161013b565b34801561021c57600080fd5b5060035461011a9073ffffffffffffffffffffffffffffffffffffffff1681565b34801561024957600080fd5b5060075461011a9073ffffffffffffffffffffffffffffffffffffffff1681565b34801561027657600080fd5b5061016461028536600461181a565b61041c565b34801561029657600080fd5b506101646102a536600461187d565b610578565b3480156102b657600080fd5b5060025461011a9073ffffffffffffffffffffffffffffffffffffffff1681565b3480156102e357600080fd5b5060055461011a9073ffffffffffffffffffffffffffffffffffffffff1681565b34801561031057600080fd5b5061020261031f366004611981565b61059e565b34801561033057600080fd5b5060065461011a9073ffffffffffffffffffffffffffffffffffffffff1681565b34801561035d57600080fd5b5061016461036c366004611a2c565b6105ed565b600354600480546040517fab9c4b5d00000000000000000000000000000000000000000000000000000000815260009373ffffffffffffffffffffffffffffffffffffffff9081169363ab9c4b5d936103dc9330938e938e938e938e93909116918d918d9101611b4e565b600060405180830381600087803b1580156103f657600080fd5b505af115801561040a573d6000803e3d6000fd5b5060019b9a5050505050505050505050565b600061045d6040518060400160405280600881526020017f73696e676c653a20000000000000000000000000000000000000000000000000815250866109df565b61049c6040518060400160405280600a81526020017f616d6f756e74496e3a200000000000000000000000000000000000000000000081525085610a74565b6104db6040518060400160405280600f81526020017f6d696e696d756d416d6f756e743a20000000000000000000000000000000000081525084610a74565b6104e482610b05565b60006104ef83610b97565b5091505060006040518060a0016040528085815260200188151581526020013073ffffffffffffffffffffffffffffffffffffffff16815260200187815260200186815250905060006105418261059e565b60045490915061056c908490839073ffffffffffffffffffffffffffffffffffffffff166000610c06565b98975050505050505050565b60003082848337600080846000845af43d6000803e808015610599573d6000f35b3d6000fd5b60008160200151156105cc576105c68260000151836040015184606001518560800151610d4f565b92915050565b6105c68260000151836040015184606001518560800151610f90565b919050565b600032816105fa84610b97565b506001546040517f095ea7b300000000000000000000000000000000000000000000000000000000815273ffffffffffffffffffffffffffffffffffffffff9182166004820152602481018b90529193508316915063095ea7b3906044016020604051808303816000875af1158015610677573d6000803e3d6000fd5b505050506040513d601f19601f8201168201806040525081019061069b9190611c16565b506001546040517f4232cd6300000000000000000000000000000000000000000000000000000000815273ffffffffffffffffffffffffffffffffffffffff84811660048301528381166024830152604482018a905290911690634232cd6390606401600060405180830381600087803b15801561071857600080fd5b505af115801561072c573d6000803e3d6000fd5b50506001546040517f5c2549ee00000000000000000000000000000000000000000000000000000000815273ffffffffffffffffffffffffffffffffffffffff868116600483015285811660248301529091169250635c2549ee9150604401602060405180830381865afa1580156107a8573d6000803e3d6000fd5b505050506040513d601f19601f820116820180604052508101906107cc9190611c3a565b506001546007546040517f2644131800000000000000000000000000000000000000000000000000000000815273ffffffffffffffffffffffffffffffffffffffff8581166004830152306024830152918216604482015260648101899052911690632644131890608401600060405180830381600087803b15801561085157600080fd5b505af1158015610865573d6000803e3d6000fd5b50506007546040517f70a0823100000000000000000000000000000000000000000000000000000000815230600482015273ffffffffffffffffffffffffffffffffffffffff90911692506370a082319150602401602060405180830381865afa1580156108d7573d6000803e3d6000fd5b505050506040513d601f19601f820116820180604052508101906108fb9190611c6c565b506040805160a08101825285815289151560208201523091810191909152606081018790526080810186905260006109328261059e565b6003546040517f095ea7b300000000000000000000000000000000000000000000000000000000815273ffffffffffffffffffffffffffffffffffffffff9182166004820152602481018a905291925084169063095ea7b3906044016020604051808303816000875af11580156109ad573d6000803e3d6000fd5b505050506040513d601f19601f820116820180604052508101906109d19190611c16565b9a9950505050505050505050565b610a7082826040516024016109f5929190611c85565b604080517fffffffffffffffffffffffffffffffffffffffffffffffffffffffffffffffe08184030181529190526020810180517bffffffffffffffffffffffffffffffffffffffffffffffffffffffff167fc3b55635000000000000000000000000000000000000000000000000000000001790526110b5565b5050565b610a708282604051602401610a8a929190611ca9565b604080517fffffffffffffffffffffffffffffffffffffffffffffffffffffffffffffffe08184030181529190526020810180517bffffffffffffffffffffffffffffffffffffffffffffffffffffffff167fb60e72cc000000000000000000000000000000000000000000000000000000001790526110b5565b610b9481604051602401610b199190611ccb565b604080517fffffffffffffffffffffffffffffffffffffffffffffffffffffffffffffffe08184030181529190526020810180517bffffffffffffffffffffffffffffffffffffffffffffffffffffffff167f0be77f56000000000000000000000000000000000000000000000000000000001790526110b5565b50565b805160009081908190610bca856014610bb1600382611d0d565b610bbb9190611d0d565b610bc59084611d25565b6110d6565b9350610beb85610bdc60036014611d0d565b610be69084611d25565b6111df565b9150610bfc85610bc5601484611d25565b9250509193909250565b6003546040517f095ea7b300000000000000000000000000000000000000000000000000000000815273ffffffffffffffffffffffffffffffffffffffff91821660048201526024810185905260009186169063095ea7b3906044016020604051808303816000875af1158015610c81573d6000803e3d6000fd5b505050506040513d601f19601f82011682018060405250810190610ca59190611c16565b506003546040517f617ba03700000000000000000000000000000000000000000000000000000000815273ffffffffffffffffffffffffffffffffffffffff878116600483015260248201879052858116604483015261ffff851660648301529091169063617ba03790608401600060405180830381600087803b158015610d2c57600080fd5b505af1158015610d40573d6000803e3d6000fd5b50600198975050505050505050565b600080600080610d5e886112d3565b925092509250610da36040518060400160405280600881526020017f746f6b656e496e3a0000000000000000000000000000000000000000000000008152508461130b565b610de26040518060400160405280600981526020017f746f6b656e4f75743a00000000000000000000000000000000000000000000008152508361130b565b600254610e0790849073ffffffffffffffffffffffffffffffffffffffff168861139c565b60006040518061010001604052808573ffffffffffffffffffffffffffffffffffffffff1681526020018473ffffffffffffffffffffffffffffffffffffffff1681526020018362ffffff1681526020018973ffffffffffffffffffffffffffffffffffffffff16815260200142610bb8610e829190611d0d565b815260208082018a905260408083018a9052600060609384015260025481517f414bf389000000000000000000000000000000000000000000000000000000008152855173ffffffffffffffffffffffffffffffffffffffff908116600483015293860151841660248201529185015162ffffff16604483015292840151821660648201526080840151608482015260a084015160a482015260c084015160c482015260e0840151821660e4820152929350169063414bf38990610104016020604051808303816000875af1158015610f5f573d6000803e3d6000fd5b505050506040513d601f19601f82011682018060405250810190610f839190611c6c565b9998505050505050505050565b600080610f9c866112d3565b5050600254909150610fc690829073ffffffffffffffffffffffffffffffffffffffff168661139c565b6040805160a08101825287815273ffffffffffffffffffffffffffffffffffffffff87166020820152600091810161100042610bb8611d0d565b815260208101879052604090810186905260025490517fc04b8d5900000000000000000000000000000000000000000000000000000000815291925073ffffffffffffffffffffffffffffffffffffffff169063c04b8d5990611067908490600401611d3c565b6020604051808303816000875af1158015611086573d6000803e3d6000fd5b505050506040513d601f19601f820116820180604052508101906110aa9190611c6c565b979650505050505050565b80516a636f6e736f6c652e6c6f67602083016000808483855afa5050505050565b6000816110e4816014611d0d565b1015611151576040517f08c379a000000000000000000000000000000000000000000000000000000000815260206004820152601260248201527f746f416464726573735f6f766572666c6f77000000000000000000000000000060448201526064015b60405180910390fd5b61115c826014611d0d565b835110156111c6576040517f08c379a000000000000000000000000000000000000000000000000000000000815260206004820152601560248201527f746f416464726573735f6f75744f66426f756e647300000000000000000000006044820152606401611148565b5001602001516c01000000000000000000000000900490565b6000816111ed816003611d0d565b1015611255576040517f08c379a000000000000000000000000000000000000000000000000000000000815260206004820152601160248201527f746f55696e7432345f6f766572666c6f770000000000000000000000000000006044820152606401611148565b611260826003611d0d565b835110156112ca576040517f08c379a000000000000000000000000000000000000000000000000000000000815260206004820152601460248201527f746f55696e7432345f6f75744f66426f756e64730000000000000000000000006044820152606401611148565b50016003015190565b60008060006112e38460006110d6565b92506112f08460146111df565b905061130284610bc560036014611d0d565b91509193909250565b610a708282604051602401611321929190611da2565b604080517fffffffffffffffffffffffffffffffffffffffffffffffffffffffffffffffe08184030181529190526020810180517bffffffffffffffffffffffffffffffffffffffffffffffffffffffff167f319af333000000000000000000000000000000000000000000000000000000001790526110b5565b6040805173ffffffffffffffffffffffffffffffffffffffff8481166024830152604480830185905283518084039091018152606490920183526020820180517bffffffffffffffffffffffffffffffffffffffffffffffffffffffff167f095ea7b30000000000000000000000000000000000000000000000000000000017905291516000928392908716916114339190611dda565b6000604051808303816000865af19150503d8060008114611470576040519150601f19603f3d011682016040523d82523d6000602084013e611475565b606091505b509150915081801561149f57508051158061149f57508080602001905181019061149f9190611c16565b611505576040517f08c379a000000000000000000000000000000000000000000000000000000000815260206004820152600260248201527f53410000000000000000000000000000000000000000000000000000000000006044820152606401611148565b5050505050565b803573ffffffffffffffffffffffffffffffffffffffff811681146105e857600080fd5b60008083601f84011261154257600080fd5b50813567ffffffffffffffff81111561155a57600080fd5b6020830191508360208260051b850101111561157557600080fd5b9250929050565b7f4e487b7100000000000000000000000000000000000000000000000000000000600052604160045260246000fd5b60405160a0810167ffffffffffffffff811182821017156115ce576115ce61157c565b60405290565b604051601f82017fffffffffffffffffffffffffffffffffffffffffffffffffffffffffffffffe016810167ffffffffffffffff8111828210171561161b5761161b61157c565b604052919050565b600082601f83011261163457600080fd5b8135602067ffffffffffffffff8211156116505761165061157c565b8160051b61165f8282016115d4565b928352848101820192828101908785111561167957600080fd5b83870192505b848310156110aa5782358252918301919083019061167f565b600082601f8301126116a957600080fd5b813567ffffffffffffffff8111156116c3576116c361157c565b6116f460207fffffffffffffffffffffffffffffffffffffffffffffffffffffffffffffffe0601f840116016115d4565b81815284602083860101111561170957600080fd5b816020850160208301376000918101602001919091529392505050565b803561ffff811681146105e857600080fd5b600080600080600080600060c0888a03121561175357600080fd5b61175c8861150c565b9650602088013567ffffffffffffffff8082111561177957600080fd5b6117858b838c01611530565b909850965060408a013591508082111561179e57600080fd5b6117aa8b838c01611623565b955060608a01359150808211156117c057600080fd5b6117cc8b838c01611623565b945060808a01359150808211156117e257600080fd5b506117ef8a828b01611698565b9250506117fe60a08901611726565b905092959891949750929550565b8015158114610b9457600080fd5b6000806000806080858703121561183057600080fd5b843561183b8161180c565b93506020850135925060408501359150606085013567ffffffffffffffff81111561186557600080fd5b61187187828801611698565b91505092959194509250565b600080600080600080600080600060a08a8c03121561189b57600080fd5b893567ffffffffffffffff808211156118b357600080fd5b6118bf8d838e01611530565b909b50995060208c01359150808211156118d857600080fd5b6118e48d838e01611530565b909950975060408c01359150808211156118fd57600080fd5b6119098d838e01611530565b909750955085915061191d60608d0161150c565b945060808c013591508082111561193357600080fd5b818c0191508c601f83011261194757600080fd5b81358181111561195657600080fd5b8d602082850101111561196857600080fd5b6020830194508093505050509295985092959850929598565b60006020828403121561199357600080fd5b813567ffffffffffffffff808211156119ab57600080fd5b9083019060a082860312156119bf57600080fd5b6119c76115ab565b8235828111156119d657600080fd5b6119e287828601611698565b825250602083013591506119f58261180c565b816020820152611a076040840161150c565b6040820152606083013560608201526080830135608082015280935050505092915050565b600080600080600060a08688031215611a4457600080fd5b8535611a4f8161180c565b9450602086013593506040860135925060608601359150608086013567ffffffffffffffff811115611a8057600080fd5b611a8c88828901611698565b9150509295509295909350565b600081518084526020808501945080840160005b83811015611ac957815187529582019590820190600101611aad565b509495945050505050565b60005b83811015611aef578181015183820152602001611ad7565b83811115611afe576000848401525b50505050565b60008151808452611b1c816020860160208601611ad4565b601f017fffffffffffffffffffffffffffffffffffffffffffffffffffffffffffffffe0169290920160200192915050565b73ffffffffffffffffffffffffffffffffffffffff898116825260e060208084018290529083018990526000918a916101008501845b8c811015611ba95783611b968661150c565b1682529382019390820190600101611b84565b508581036040870152611bbc818c611a99565b93505050508281036060840152611bd38188611a99565b73ffffffffffffffffffffffffffffffffffffffff87166080850152905082810360a0840152611c038186611b04565b915050610f8360c083018461ffff169052565b600060208284031215611c2857600080fd5b8151611c338161180c565b9392505050565b600060208284031215611c4c57600080fd5b81516fffffffffffffffffffffffffffffffff81168114611c3357600080fd5b600060208284031215611c7e57600080fd5b5051919050565b604081526000611c986040830185611b04565b905082151560208301529392505050565b604081526000611cbc6040830185611b04565b90508260208301529392505050565b602081526000611c336020830184611b04565b7f4e487b7100000000000000000000000000000000000000000000000000000000600052601160045260246000fd5b60008219821115611d2057611d20611cde565b500190565b600082821015611d3757611d37611cde565b500390565b602081526000825160a06020840152611d5860c0840182611b04565b905073ffffffffffffffffffffffffffffffffffffffff60208501511660408401526040840151606084015260608401516080840152608084015160a08401528091505092915050565b604081526000611db56040830185611b04565b905073ffffffffffffffffffffffffffffffffffffffff831660208301529392505050565b60008251611dec818460208701611ad4565b919091019291505056fea2646970667358221220bc0e3bc549a2e8b8af4269d58cf6a626ff13701eef7901c881a195dc8a148bfe64736f6c634300080a0033",
  "linkReferences": {},
  "deployedLinkReferences": {}
}